:020000040800F2
:10000000A0070020A9030008AD010008AF01000807
:10001000B3010008B7010008BB01000800000000A0
:10002000000000000000000000000000BF01000808
:10003000C101000800000000C3010008C50100085C
:10004000C3030008C3030008C3030008C303000878
:10005000C3030008C3030008C3030008C303000868
:10006000C3030008C3030008C3030008C303000858
:10007000C3030008C3030008C3030008C303000848
:10008000C3030008C3030008C3030008C303000838
:10009000C3030008C3030008C3030008C303000828
:1000A000C3030008C3030008C3030008C303000818
:1000B000C3030008C3030008C3030008C303000808
:1000C000C3030008C3030008C3030008C3030008F8
:1000D000C3030008AD1B0008C3030008C3030008E6
:1000E000C3030008C3030008C303000800F002F8BC
:1000F00000F04DF80AA090E8000C82448344AAF175
:100100000107DA4501D100F042F8AFF2090EBAE872
:100110000F0013F0010F18BFFB1A43F0010318473B
:1001200024C5000044C50000103A24BF78C878C137
:10013000FAD8520724BF30C830C144BF04680C60ED
:10014000704700000023002400250026103A28BF35
:1001500078C1FBD8520728BF30C148BF0B60704739
:10016000662908F02E86752907F0F081782907F0B6
:100170002982002070471FB507F02AFD04000020E7
:10018000002108F08BFAE0601FBD10B510BD07F02C
:100190003BFE1146FFF7EFFF01F067FD07F059FE48
:1001A00003B4FFF7F2FF03BC01F0A6FC704700BFE9
:1001B000FEE700BFFEE700BFFEE700BFFEE77047B7
:1001C00070477047704700000CB500200190009008
:1001D0006C48006840F480306A49086000BF694894
:1001E000006800F4003000900198401C01900098D5
:1001F00018B90198B0F5A06FF1D16248006800F419
:10020000003010B10120009001E000200090009823
:10021000012843D15C48006840F010005A4908604A
:100220000846006820F0030008600846006840F0B7
:1002300002000860534840685249486008464068D8
:1002400048600846406840F480604860084640685E
:1002500020F47C1048600846406840F4E81048608C
:100260000846006840F08070086000BF454800689C
:1002700000F000700028F9D04248406820F00300E8
:10028000404948600846406840F00200486000BFAE
:100290003C48406800F00C000828F9D10CBD10B5AE
:1002A000FFF792FF10BD10B53648006840F001001E
:1002B000344908600846406834490840314948607C
:1002C00008460068324908402E4908600846006820
:1002D00020F4802008600846406820F4FE00486052
:1002E0004FF41F008860FFF7DAFF4FF000602949E4
:1002F000086010BD10B5002100200022214B5B6872
:1003000003F00C0121B1042906D0082928D107E007
:10031000214B224C236027E01F4B204C236023E01D
:10032000184B5B6803F47010164B5B6803F4803263
:10033000022303EB904022B9194B4343174C23602F
:100340000DE0104B5B6803F4003323B1144B4343BF
:10035000124C236003E0104B4343104C236003E036
:100360000D4B0E4C236000BF00BF064B5B68C3F310
:1003700003130C4CE15C094B1B68CB40074C23601A
:1003800010BD000000100240002002400000FFF8F5
:10039000FFFFF6FE08ED00E000127A0000000020EA
:1003A00000093D0004000020094880470948004733
:1003B000FEE7FEE7FEE7FEE7FEE7FEE7FEE7FEE715
:1003C000FEE7FEE704480549054A064B7047000072
:1003D000A7020008ED000008A0010020A0070020EF
:1003E000A0030020A003002031490143314A1160DD
:1003F000704770B5002100230F22C47804B32D4C40
:10040000246804F4E064C4F5E064210AC1F1040343
:10041000CA40447804FA03F1847814402143090166
:10042000254C0678A155047804F01F050124AC4042
:1004300005786D11AD0005F1E025C5F8004109E032
:10044000047804F01F050124AC401C4D0678761199
:1004500045F8264070BD1A4A0A400243154B1B1F3F
:100460001A60704739B1134A121D12680243114BCA
:100470001B1D1A6006E00F4A121D126882430D4BC5
:100480001B1D1A607047042808D14FF0E02109694C
:1004900041F004014FF0E022116107E04FF0E0214C
:1004A000096921F004014FF0E0221161704700005A
:1004B0000000FA050CED00E000E400E080E100E05F
:1004C00080FFFF1F30B943F2DB028100A1F1C04180
:1004D0000A6005E043F2D2028100A1F1C0410A6046
:1004E0006FF07042411C8900A1F1C0410A60810097
:1004F000A1F1C041C1F80421704710280AD1182188
:100500004FF020421166402151664FF0FC31916658
:10051000D16610E01821F74A116040214FF02042C7
:10052000C2F884104FF0FC31F24A083211604FF0EB
:100530002042C2F88C1070471820EE492031086024
:1005400000200906C1F8A4004FF0FC30E949283129
:100550000860091D0860091D08607047D0E9011294
:100560001143C26811430269114342691143826910
:100570001143C2691143026A1143426A1143826AFC
:100580001143C26A1143026B114302689200A2F147
:10059000C0421160816808290BD101688900A1F16E
:1005A000C041096841F0400201688900A1F1C041E1
:1005B0000A60416B0968426B526841EA0211426B62
:1005C000926841EA0221426B928941EA0241426B00
:1005D000128A41EA0251426B127D41EA0261426B8A
:1005E000926911430268521C9200A2F1C04211604C
:1005F000C16AB1F5804F1BD1816B0968826B52686B
:1006000041EA0211826B926841EA0221826B128AEE
:1006100041EA0251826B127D41EA0261826B92696A
:10062000114302689200A2F1C042C2F8041107E02F
:100630006FF0704201688900A1F1C041C1F8042146
:10064000704730B5002100220023446844F00804BC
:1006500085682C43C5682C4305692C43456944EAE9
:100660004524856944EA4531C4692468C5696D68D3
:1006700044EA0524C5692D8944EA0544C5692D7BF2
:1006800044EA0562046A2468056A6D6844EA052440
:10069000056A2D8944EA0544056A2D7B44EA056311
:1006A0000468102C05D14FF020442166A266E36651
:1006B00008E0904C21604FF02044C4F888208D4C15
:1006C0000C34236030BD016841F01001426841EAFA
:1006D0004221826841EA4231864A20321160C16873
:1006E0000968C268526841EA0221C268128941EA77
:1006F0000241C268127B41EA02617E4A28321160DF
:10070000016909680269526841EA02210269128995
:1007100041EA02410269127B41EA0261754A2C32C8
:100720001160416909684269526841EA02214269DF
:10073000128941EA02414269127B41EA02614FF0AB
:100740002042C2F8B01070470021016002214160D0
:1007500000218160C160016141618161C16101620B
:100760004FF480514162490081620021C1620163FE
:100770000F21426B1160426B5160FF21426B91600F
:100780000F21426BD160426B1161426B51610021BC
:10079000426B91610F21826B1160826B5160FF216E
:1007A000826B91600F21826BD160826B1161826BD1
:1007B00051610021826B916170471021016000211D
:1007C00041608160C160016141618161FC21C26958
:1007D0001160C2695160C2699160C269D160026AE8
:1007E0001160026A5160026A9160026AD1607047CA
:1007F0000021016041608160FC21C2681160C26813
:100800005160C2689160C268D1600269116002697A
:100810005160026991600269D16042691160426968
:100820005160426991604269D160704751B1820064
:10083000A2F1C042126842F001038200A2F1C0425C
:10084000136009E08200A2F1C04212682A4B1A40EC
:100850008300A3F1C0431A60704799B1102808D1F2
:100860004FF02042126E42F004024FF020431A660D
:100870001DE0204A126842F004024FF02043C3F802
:10088000802014E0102809D14FF02042126E1A4B3C
:10089000DB1E1A404FF020431A6608E0154A126822
:1008A000154BDB1E1A404FF02043C3F880207047E1
:1008B00048B110492031096841F004014FF020424D
:1008C000C2F8A01009E00B49203109680A4AD21E7B
:1008D00011404FF02042C2F8A0107047B9B1102863
:1008E0000CD14FF02042126E42F040024FF02043F4
:1008F0001A661FE0800000A0FEFF0F00724A126817
:1009000042F040024FF02043C3F8802012E010284C
:1009100008D14FF02042126E6C4B1A404FF020432A
:100920001A6607E0684A1268684B1A404FF0204385
:10093000C3F88020704701460020102903D14FF0F2
:100940002042506F02E0604A14321068704710B5C0
:10095000F2B1102807D14FF020435B6E0B434FF0EC
:100960002044636632E0B0F5807F08D1564B1B1DF2
:100970001B680B434FF02044C4F8843026E0524BF0
:1009800024331B680B434FF02044C4F8A4301DE00F
:10099000102807D14FF020435B6E8B434FF020446B
:1009A000636613E0B0F5807F08D1474B1B1D1B68C1
:1009B0008B434FF02044C4F8843007E0424B24338B
:1009C0001B688B434FF02044C4F8A43010BD10B511
:1009D000024600200023102A03D14FF02044636E0A
:1009E00009E0B2F5807F03D1374C241D236802E073
:1009F000354C2434236803EA01040CB1012000E0E3
:100A0000002010BD102807D14FF02042526E8A43BB
:100A10004FF020435A6613E0B0F5807F08D12A4A90
:100A2000121D12688A434FF02043C3F8842007E068
:100A3000254A243212688A434FF02043C3F8A42089
:100A4000704770B502460020002300240025102ABC
:100A500003D14FF02046736E09E0B2F5807F03D1D9
:100A6000194E361D336802E0174E2436336803EA08
:100A7000010403EAD10514B10DB1012000E000200A
:100A800070BD102808D14FF02042526E22EAD102E8
:100A90004FF020435A6615E0B0F5807F09D10A4A2D
:100AA000121D126822EAD1024FF02043C3F88420BD
:100AB00008E0054A2432126822EAD1024FF02043AE
:100AC000C3F8A42070470000800000A0BFFF0F0003
:100AD00010B50446CC48844208D10121042000F01E
:100AE0002DFB0021042000F029FB46E0C74884428A
:100AF00008D10121082000F021FB0021082000F08E
:100B00001DFB3AE0C248844208D10121102000F0C8
:100B100015FB0021102000F011FB2EE0BD4884429F
:100B200008D10121202000F009FB0021202000F045
:100B300005FB22E0B848844208D10121402000F0A2
:100B4000FDFA0021402000F0F9FA16E0B348844293
:100B500008D10121802000F0F1FA0021802000F06E
:100B6000EDFA0AE0AE48844207D10121801500F079
:100B7000E5FA0021A01500F0E1FA10BD10B5012141
:100B8000084600F0DBFA0021012000F0D7FA10BD82
:100B90002DE9F04102460025002600200023002414
:100BA000002791F803C00CF00F0591F803C00CF07A
:100BB000100CBCF1000F03D091F802C04CEA0505FF
:100BC00091F800C0BCF1000F31D0146800202BE078
:100BD0004FF0010C0CFA00F3B1F800C00CEA030668
:100BE0009E4220D183004FF00F0C0CFA03F7BC4358
:100BF00005FA03FC4CEA040491F803C0BCF1280F89
:100C000006D14FF0010C0CFA00FCC2F814C00AE047
:100C100091F803C0BCF1480F05D14FF0010C0CFA5C
:100C200000FCC2F810C0401C0828D1D31460B1F8F1
:100C300000C0BCF1FF0F34DD546800202EE000F14D
:100C4000080C4FF0010808FA0CF3B1F800C00CEAE8
:100C500003069E4221D183004FF00F0C0CFA03F7DC
:100C6000BC4305FA03FC4CEA040491F803C0BCF150
:100C7000280F05D100F1080C08FA0CF8C2F814800E
:100C800091F803C0BCF1480F07D100F1080C4FF0F8
:100C9000010808FA0CF8C2F81080401C0828CED3CE
:100CA0005460BDE8F0814FF6FF7101800221817030
:100CB0000421C17070470246002093680B400BB1BD
:100CC000012000E0002070470146886880B270472C
:100CD00002460020D3680B400BB1012000E0002049
:100CE00070470146C86880B2704701617047416132
:100CF00070470AB1016100E041617047C16070470F
:100D00004FF480320A438261816182618269826923
:100D1000704702460020434B18684FF68073184016
:100D200040EA021008433F4B186070473E49C861D3
:100D30007047F0B50A46002300240021002500F08A
:100D40000046B6F1004F02D1364EF16901E0354E52
:100D50007168C0F3034583B200F44016B6F5401F36
:100D600008D121F070612F4E766826F070662D4F05
:100D70007E6012E000F48016B6F5801F06D10326CF
:100D800006FA05F4A14341F0706106E0460D360114
:100D900003FA06F6B14341F0706122B1460D360107
:100DA00003FA06F6314300F00046B6F1004F02D1D7
:100DB0001C4EF16101E01B4E7160F0BD30B50022A8
:100DC0008B071C0F0F2303FA04F2164B08338C1009
:100DD00053F824309343134C08348D1044F82530D5
:100DE00023468C1053F824308C07240F00FA04F4A7
:100DF00023430C4C08348D1044F8253030BD0A498B
:100E0000DC3108607047000000080140000C014020
:100E1000001001400014014000180140001C014076
:100E2000002001400000014000002042DF4800682F
:100E300040F00100DD49086008464068DC49084090
:100E4000DA49486008460068DA490840D74908602E
:100E50000846006820F4802008600846406820F4B6
:100E6000FE0048604FF41F0088607047CF49096852
:100E700021F48031CD4A11601146096821F48021A6
:100E80001160B0F5803F03D0B0F5802F0ED106E0A1
:100E9000C649096841F48031C44A116007E0C3497A
:100EA000096841F4A021C14A116000E000BF00BF01
:100EB000704710B501460022002300204A11012A84
:100EC00002D1BA4C236806E0022A02D1B74C236A49
:100ED00001E0B64C636A01F01F02012494401C40FB
:100EE0000CB1012000E0002010BD38B500200090BA
:100EF0000024002500BF3120FFF7DBFF05460098E6
:100F0000401C00900098B0F5A06F01D0002DF2D0E9
:100F10003120FFF7CEFF08B1012400E00024204675
:100F200038BD01460020A14A106820F0F80040EAD0
:100F3000C10010607047A049086070470246002059
:100F40009A4B586820F47C1042EA01031843974BEF
:100F50005860704798490866704701460020934AD8
:100F6000506820F003000843506070478F48406885
:100F700000F00C007047014600208C4A506820F0B9
:100F8000F00008435060704701460020874A5068CF
:100F900020F4E06008435060704701460020834A17
:100FA000506820F4605040EAC1005060704729B199
:100FB0007E4A527A02437D4B5A7204E07B4A527A4F
:100FC00082437A4B5A7270477B49D8310860704728
:100FD00001460020754A506820F4404008435060A4
:100FE00070470021714A20321170704A82F8201037
:100FF000012802D004280AD104E001216B4A2032E2
:10100000117005E00521694A2032117000E000BF2F
:1010100000BF70476949086070476449096A014325
:10102000624A11627047654944390860704730B5BB
:1010300000210022002400235C4D6D6805F00C01A6
:1010400021B1042905D0082923D105E05C4D0560B4
:1010500022E05B4D05601FE0544D6D6805F4701291
:10106000524D6D6805F48034022505EB92421CB99F
:10107000544D554305600BE04C4D6D6805F400354B
:101080001DB1504D5543056002E04D4D554305607F
:1010900002E04B4D056000BF00BF444D6D6805F098
:1010A000F0010909484D6B5C0568DD4045603F4D26
:1010B0006D6805F4E061090A434D6B5C4568DD40ED
:1010C00085603A4D6D6805F46051C90A3E4D6B5C10
:1010D0004568DD40C560354D6D6805F44041890BBC
:1010E0003A4D6B5CC568B5FBF3F5056130BD29B1C0
:1010F0002E4A526902432D4B5A6104E02B4A526931
:1011000082432A4B5A61704729B1284A92690243A7
:10111000264B9A6104E0254A92698243234B9A61E7
:10112000704729B1214AD2690243204BDA6104E0B9
:101130001E4AD26982431D4BDA61704729B11B4AAE
:10114000D2680243194BDA6004E0184AD26882433D
:10115000164BDA60704729B1144A12690243134BE7
:101160001A6104E0114A12698243104B1A617047F8
:1011700012494039086070470F49C86470470B49ED
:10118000C87170470948406A40F08070074948625A
:10119000704701460020054A92680A400AB10120C2
:1011A00000E000207047014988727047001002403B
:1011B0000000FFF8FFFFF6FE0000424280044242BA
:1011C00000127A0000093D001400002024000020D5
:1011D00010B50446FB48844209D101218803FFF77A
:1011E000ADFF00214FF48040FFF7A8FF32E0F64842
:1011F000844209D101214804FFF7ADFF00214FF4DB
:101200000030FFF7A8FF25E0F048844209D1012112
:101210008804FFF7A0FF00214FF48020FFF79BFF19
:1012200018E0EB48844209D10121C804FFF793FF7D
:1012300000214FF40020FFF78EFF0BE0E5488442C9
:1012400008D101210805FFF786FF00214FF4801027
:10125000FFF781FF10BD2DE9F04786B005460E4629
:101260000024A24600BFA1460027B08900B100BFFC
:101270002F462C8A4CF6FF700440F08804432C82E1
:10128000AC894EF6F3100440B08831890843718967
:1012900008430443AC81AC8A4FF6FF400440B08958
:1012A0000443AC8201A8FFF7C2FEC648874202D1C0
:1012B000DDF810A001E0DDF80CA0A88900F40040E2
:1012C00040B10AEBCA0000EB0A1031684900B0FBDC
:1012D000F1F807E00AEBCA0000EB0A103168890058
:1012E000B0FBF1F86420B8FBF0F0040120096421A0
:1012F00001FB1089A88900F4004040B1322000EBC6
:10130000C900B0FBF1F000F00700044308E0322010
:1013100000EB09106421B0FBF1F000F00F00044372
:101320002C8106B0BDE8F0874FF416510160002112
:101330008180C18001810C21418100218181704720
:1013400010B502460020108A4FF2FF0318400B88A8
:101350004C8823438C882343CC8823431843108232
:1013600010BD0021018041808180C180704721B182
:10137000828942F40052828104E082894DF6FF7333
:101380001A4082817047F0B50346002400260025EC
:10139000002040F66A17B94200D100BF1846C1F3D9
:1013A000421401F01F06012707FA06F5012C01D1AE
:1013B0000C3004E0022C01D1103000E014301AB1DE
:1013C00007682F43076002E00768AF430760F0BD7E
:1013D0001AB1838A0B43838202E0838A8B43838220
:1013E0007047028A4FF6F0731A400282028A0A435B
:1013F0000282704782894FF2FF731A40828182898C
:101400000A438281704721B1828942F002028281BF
:1014100004E082894FF6FD731A4082817047028A88
:101420004FF6DF731A400282028A0A430282704733
:1014300021B1028A42F48042028204E0028A4BF621
:10144000FF731A4002827047C1F30802828070471E
:1014500001468888C0F308007047818941F0010186
:1014600081817047028BD2B20283028B42EA012251
:1014700002837047028B02F47F420283028B0A438D
:101480000283704721B1828A42F02002828204E006
:10149000828A4FF6DF731A408282704721B1828AB6
:1014A00042F01002828204E0828A4FF6EF731A4003
:1014B0008282704721B1828A42F00802828204E06F
:1014C000828A4FF6F7731A408282704721B182896F
:1014D00042F40042828103E08289C2F30E028281DB
:1014E000704721B1828A42F40062828204E0828ADB
:1014F0004FF2FF731A4082827047828A4FF6FB7365
:101500001A408282828A0A438282704721B1828A8B
:1015100042F00202828204E0828A4FF6FD731A4092
:101520008282704702460020B1F5007F00D100BFE3
:1015300013880B400BB1012000E00020704701F43C
:101540000072B2F5007F00D100BFCA43028070472D
:1015500070B50246002400230025002040F66A16DC
:10156000B14200D100BFC1F3421501F01F030126B3
:1015700006FA03F3012D02D19689334006E0022DCD
:1015800002D1168A334001E0968A33400C120126BC
:1015900006FA04F41688344013B10CB1012000E0BF
:1015A000002070BD10B50022002340F66A14A1424D
:1015B00000D100BF0A1201249440A3B2DC4304808E
:1015C00010BD0000003801400044004000480040C9
:1015D000004C00400050004010B50446FA488442D8
:1015E00008D101214015FFF7A9FD00216015FFF783
:1015F000A5FD17E0F548844208D101210015FFF749
:101600009DFD00212015FFF799FD0BE0F048844275
:1016100008D10121C803FFF791FD00214FF40040DC
:10162000FFF78CFD10BD30B5024600200023506846
:10163000E84C20400D790C6844EA052420435060B2
:101640009068E54C2040D1E902542C434D7944EA9E
:10165000450420439060D06A20F470000C7C641E26
:10166000E4B2234340EA0350D06230BD0021016060
:10167000017141718160C16001210174704721B124
:10168000826842F00102826003E0826822F0010277
:101690008260704721B1826842F48072826003E008
:1016A000826822F480728260704710B50023CBB24A
:1016B0001AB144681C43446002E044689C4344609F
:1016C00010BD816841F0080181607047014600202B
:1016D0008A6802F008020AB1012000E00020704789
:1016E000816841F0040181607047014600208A68EA
:1016F00002F004020AB1012000E00020704721B18D
:10170000826842F4A002826003E0826822F4A002B0
:1017100082607047014600208A6802F480020AB1A4
:10172000012000E00020704710B50A460021002388
:10173000416821F46041531E41EA4331416010BDCC
:1017400021B1426842F40062426003E0426822F440
:10175000006242607047F0B504460D46002000214B
:10176000092D11DDE068A5F10A0606EB46070726FC
:1017700006FA07F18843A5F10A0606EB460603FAC6
:1017800006F10843E0600CE0206905EB45070726F9
:1017900006FA07F1884305EB450603FA06F108430C
:1017A0002061072A0FDA606B561E06EB86071F269C
:1017B00006FA07F18843561E06EB860605FA06F17F
:1017C0000843606322E00D2A0FDA206BD61F06EB78
:1017D00086071F2606FA07F18843D61F06EB860602
:1017E00005FA06F10843206310E0E06AA2F10D0655
:1017F00006EB86071F2606FA07F18843A2F10D06BD
:1018000006EB860605FA06F10843E062F0BD21B159
:10181000826842F48012826003E0826822F48012BF
:10182000826070470146C86C80B2704766484C3091
:101830000068704721B1426842F48062426003E070
:10184000426822F480624260704721B1426842F4EB
:101850008052426003E0426822F480524260704746
:101860000A460021816821F4E041114381607047FC
:1018700021B1826842F40042826003E0826822F46F
:1018800000428260704721B1826842F40212826095
:1018900003E0826822F40212826070470146002051
:1018A0008A6802F400120AB1012000E000207047AB
:1018B000F0B504461546002000220026092911DD56
:1018C000E068A1F10A0707EB470C072707FA0CF2BB
:1018D0009043A1F10A0707EB470703FA07F2104309
:1018E000E0600CE0206901EB410C072707FA0CF2DD
:1018F000904301EB410703FA07F210432061A06B0C
:10190000C0F30156EF1C06F1010CA7EB0C0707EB27
:10191000870C1F2707FA0CF29043EF1C06F1010C0D
:10192000A7EB0C0707EB870701FA07F21043A06348
:10193000F0BD10B50A4600210023816B21F440114F
:10194000531E41EA0351816310BD08B50023009383
:101950000090009B0B440093009B1A6008BD08B5E3
:10196000024600200090009201F12800009B1844DC
:1019700000900098006880B208BD0A4600214168C6
:10198000164B1940114341607047416282627047B3
:101990000A460021416821F01F0111434160704750
:1019A00040B109490831096841F40001064A08328A
:1019B000116007E004490831096821F40001024A76
:1019C00008321160704700000024014000280140E7
:1019D000003C0140FFFEF0FFFDF7F1FFFFFD3FFF80
:1019E0000246002013680B400BB1012000E00020EC
:1019F0007047CA430260704770B50246002000235A
:101A000000240B125568CEB205EA060415681D4085
:101A100015B10CB1012000E0002070BD00220A12B7
:101A2000D3430360704700004FF0E021096921F0C3
:101A300004014FF0E0221161C21700EB5272C2F3B1
:101A4000C7022B4B1A701946097801EB4102C2EB11
:101A5000C1114FF6FF7202EAC101264A1180704798
:101A60000146234A12784A434FF0E0235A6100228C
:101A70009A611A46126942F001021A6100BF4FF0E2
:101A8000E022106900F001021AB100F48032002A4D
:101A9000F5D04FF0E022126922F001024FF0E0236E
:101AA0001A6100229A6170470146124A12884A431D
:101AB0004FF0E0235A6100229A611A46126942F0FF
:101AC00001021A6100BF4FF0E022106900F001022C
:101AD0001AB100F48032002AF5D04FF0E0221269EA
:101AE00022F001024FF0E0231A6100229A61704750
:101AF000280000202A00002000BF704700BF484A8D
:101B0000128802F04002002AF9D0C2B2444B1B1DD9
:101B10001A80704710B586B00446012144F20400D3
:101B2000FFF7F2FA4FF40070ADF8140003208DF8BF
:101B3000160018208DF8170005A93A48FFF728F875
:101B40004FF48060ADF8140004208DF8170005A94B
:101B50003448FFF71DF825208DF8000003208DF88C
:101B600001008DF8020001208DF803006846FEF7A1
:101B700040FC01940020ADF80800ADF80A00ADF873
:101B80000C00ADF810000C20ADF80E0001A924489F
:101B9000FFF761FB012240F225512148FFF7F3FBDB
:101BA00001211F48FFF7E3FB06B010BD10B540F25E
:101BB00025511B48FFF7CCFC80B31948FFF748FCC0
:101BC000C4B21948008800F4004038BB16480088A9
:101BD00000F4804030B11448008840F400401249BD
:101BE00008801BE0212C01D00D2C06D10E48008866
:101BF00040F480400C49088010E00B480088C0F396
:101C00000D000A490C5408480088401C0649088009
:101C100008460088C72801DD0020088010BD0000AC
:101C2000003801400008014030000020540000202E
:101C300030B502460B46002001210FE0545C302CE9
:101C400009DB545C392C06DC545C303C00EB80052D
:101C500004EB450000E006E04C1CE1B2545C232C90
:101C600001D09942EADB00BF30BDADF5227D0024F2
:101C7000002600200B9082460A904FF4A060FEF7E9
:101C8000B3FB4FF41650FFF745FF4820FFF7CCFE9B
:101C900000F08AFE00F02AFB01F0C9FD00F0AAFE68
:101CA0004FF49670FFF700FF00F0D1FB4FF478403F
:101CB000F7490880F7A010210B46C822CDE9001093
:101CC00032213C2005F002FCF5A010210B46C82271
:101CD000CDE9001046213C2005F0F8FBF3A01021CF
:101CE0000B46C822CDE900105A213C2005F0EEFB3E
:101CF000F2A010210B46C822CDE900106E213C2035
:101D000005F0E4FB1F20E2490880EFA010210B46FC
:101D1000C822CDE9001082213C2005F0D7FBEEA0BF
:101D200010210B46C822CDE9001096213C2005F079
:101D3000CDFB0020ED490870ED49487000F0A8FB8C
:101D4000C82000F039FC44F6206000F01AFC92E252
:101D50000B98401C80B20B901E210B9890FBF1F267
:101D600001FB120038B9E348006808B9012000E01F
:101D70000020E04908600A20FFF796FE012000F0ED
:101D80007BFE83460020102104235A46CDE9001033
:101D900082219C2005F02CFB584606F0B3FE0190F2
:101DA00006F002FE4FF06632D34BCDE9020106F099
:101DB000FDFCCDE9040106F087FC8046C1464046A3
:101DC00006F080FE1FFA80FB0020102101235A46F6
:101DD000CDE9001096219C2005F00AFB584606F03C
:101DE00091FE4146059006F06DFF8046C34940468E
:101DF00006F09CFE8046404606F064FE059080207A
:101E000010210323CDE900109621AC20059A05F09E
:101E1000EFFAB848006808B9012000E00020B54991
:101E200008606420FFF740FE962C13DA0A9888B108
:101E30000CA840F824900CA951F8240006F0B4FD39
:101E400002460B46CDE90401ADA005F073FB601C12
:101E500084B202E000200A900024AB48008800F41D
:101E6000004000286FD0A948006808B9012000E0B0
:101E70000020A6490860A4480088C0F30D05A448C6
:101E80000078412835D10020984908709849487059
:101E900000F0FEFA002401E0601C84B29C48005D62
:101EA000422801D0AC42F7DBAC4206D199A005F044
:101EB00041FB002094490880DDE1E1B29448FFF73E
:101EC000B7FE06902A1BD1B2914A1019FFF7B0FE57
:101ED00007904FF47A72069901FB02F000F051FB73
:101EE000079800F069FB8EA0DDE9061205F022FBE1
:101EF000B6E087480078432810D1E9B28448FFF75C
:101F000097FE06904FF47A72069901FB02F000F0FA
:101F1000EAFC8EA0069905F00DFBA1E07C48007854
:101F2000442811D1E9B27A48FFF782FE06904FF4B7
:101F30007A72069901FB02F000F0FDFC8BA0069975
:101F400005F0F8FA8CE096E071480078452873D1E6
:101F5000C82000F031FB002401E0601C84B26C4812
:101F6000005D462801D0AC42F7DBAC4206D169A047
:101F700005F0E0FA0020644908807CE1E1B26448A1
:101F8000FFF756FE0690264601E0701C86B26048B8
:101F9000805D472801D0AE42F7DBAE4206D15DA09E
:101FA00005F0C8FA00205849088064E1321BD1B21C
:101FB000574A1019FFF73CFE0790DDE906018842F9
:101FC00006D354A005F0B6FA00204F49088052E12C
:101FD000344601E0601C84B24D48005D482801D0C1
:101FE000AC42F7DBAC4206D14AA005F0A3FA0020D0
:101FF000454908803FE1A21BD1B2454A9019FFF73D
:1020000017FE08902A1BD1B2414A1019FFF710FEA3
:1020100009904FF47A7EDDF824C00CFB0EF306A87D
:1020200007C800F045FB0998009059A006A90EC901
:1020300005F080FA14E0FFE735480078542802D113
:1020400001200A900CE033A005F074FA5EA0102184
:102050000B46C822CDE900101146642005F036FA7F
:102060002A48006808B9012000E0002027490860DC
:10207000002025490880002000F052F90746002F73
:1020800005D02248006808B90120A2E0A0E0F1E0F4
:1020900050000020456C6974652053544D33320064
:1020A00041444320544553540000000041544F4DD7
:1020B00040414C49454E54454B00000032303135CB
:1020C0002F312F31340000004144435F4348305FDB
:1020D00056414C3A000000004144435F4348305FA2
:1020E000564F4C3A302E303030560000330000202E
:1020F000370000209481214266664A3F00007A44FE
:1021000025660D0A000000003000002094012342E3
:10211000540000204572726F72210D0A0000000009
:10212000B4AEBFDABFD8D6C6A3BAD5FDCFD2D0C51C
:10213000BAC5A3A8256C75206B487A202F20256C82
:1021400075206D56A3A90D0A00000000B4AEBFDAD9
:10215000BFD8D6C6A3BAB7BDB2A8D0C5BAC5A3A8C2
:10216000256C75206B487AA3A90D0A00B4AEBFDABE
:10217000BFD8D6C6A3BABEE2B3DDB2A8D0C5BAC531
:10218000A3A8256C75206B487AA3A90D0A0000004E
:10219000B4AEBFDABFD8D6C6A3BAC9A8C6B5D0C533
:1021A000BAC5A3A8256C752D256C7520487A202FFB
:1021B00020256C7520487A202F20256C75206D73A2
:1021C000A3A90D0A000000004572726F7221000081
:1021D000002029490860012F15D0022F34D0032F89
:1021E0003FD10020254908702549487000F050F97A
:1021F000C82000F0E1F944F6206000F0C2F921A007
:1022000005F098F92DE0BAF1000F0ED144F62060E8
:1022100000F091FB21A005F08DF9BAF1000F01D17A
:10222000012000E0002082460DE044F6206000F02E
:102230005AFB20A005F07EF9BAF1000F01D1012070
:1022400000E0002082460CE0C82000F0B5F91F4BEA
:1022500014221F49642000F02BFA1EA005F06AF931
:1022600000BF00BF0448006808B9012000E000205A
:102270000149086000BF6BE5940123423300002050
:1022800037000020B0B4BCFCBFD8D6C6A3BAD5FD79
:10229000CFD2D0C5BAC50D0A00000000B0B4BCFC56
:1022A000BFD8D6C6A3BABEE2B3DDB2A8D0C5BAC500
:1022B0000D0A0000B0B4BCFCBFD8D6C6A3BAB7BDE7
:1022C000B2A8D0C5BAC50D0A00000000C0D40100F4
:1022D000A0860100B0B4BCFCBFD8D6C6A3BAC9A8BA
:1022E000C6B5D0C5BAC50D0A0000000008B5012169
:1022F0004420FEF709FF1820ADF8000048208DF8B3
:10230000030069462C48FEF743FC0120ADF80000AD
:1023100028208DF8030069462848FEF739FC08BDDF
:1023200010B5044614B101202549087024480078EE
:1023300058B310212048FEF7BEFC50B108211E48BA
:10234000FEF7B9FC28B101211C48FEF7B4FC0128B6
:102350001BD10A20FFF7A8FB0020194908701021A3
:102360001548FEF7A8FC08B9012010BD0821124845
:10237000FEF7A1FC08B90220F7E701210F48FEF79C
:102380009AFC012815D10320EFE710210A48FEF737
:1023900092FC01280DD108210748FEF78CFC01288A
:1023A00007D101210548FEF786FC10B90120044938
:1023B00008700020D9E70000001801400008014023
:1023C0003200002008B501211C20FEF79DFE4FF4CD
:1023D0008060ADF8000003208DF8020010208DF819
:1023E00003006946F948FEF7D3FB4FF4BA70ADF825
:1023F00000006946F648FEF7CBFB43F6FF70ADF8E8
:1024000000006946F348FEF7C3FB08BD10B502465D
:1024100080210023F04C2360002015E002EA010334
:1024200023B90023EC4C0C34236003E00123EA4C75
:102430000C3423600123E84C236049100023E74C4F
:10244000C4F88831431CD8B20828E7DB10BD10B5AA
:10245000FFF7B8FF0020E2490860E149243908602D
:10246000DF490C390860DE4920390860DA49083153
:102470000860DB49303908600120D849C1F898016B
:102480000520FFF711FB0020D449C1F8980110BDC9
:1024900070B50020D3490860FFF7B8FF002505E0BC
:1024A000D149485DFFF7B2FF681CC5B2042DF7DBC8
:1024B0000120CC490860002401E0601CC4B20A2C51
:1024C000FBDB0020C74908600120FFF79FFF0025C4
:1024D00005E0C649485DFFF799FF681CC5B2042DA9
:1024E000F7DB0120BF490860002401E0601CC4B292
:1024F0000A2CFBDB0020BB4908600220FFF786FFA7
:10250000002505E0BA49485DFFF780FF681CC5B2A9
:10251000042DF7DB0120B3490860002401E0601CB2
:10252000C4B20A2CFBDB0120AD4928390860002425
:1025300001E0601CC4B20A2CFBDB0020A84928394A
:1025400008600120FFF7B0FA70BD10B50020A54962
:1025500008600E20FFF75AFF002405E0A549085D3A
:10256000FFF754FF601CC4B2082CF7DB01209D4923
:102570000860A149C1F88C010020994928390860F8
:1025800010BD2DE9F0478146484606F0FCF80746A5
:102590009A4A9B4B06F00AF9054606F0C7F804462E
:1025A0009449CC71200A8871200C4871200E087162
:1025B000FFF7CBFFBDE8F0872DE9F047814648469D
:1025C00006F0E1F807468F4A8F4B06F0EFF8054614
:1025D00006F0ACF80446B4F5804F01D343F6FF741F
:1025E000C4F30D0483494C70200A0870FFF7ADFF57
:1025F000BDE8F08770B500207A4908600B20FFF72E
:1026000005FF002405E08149085DFFF7FFFE601C1F
:10261000C4B2082CF7DB012072490860002501E0F4
:10262000681CC5B20A2DFBDB00206E4908600C2037
:10263000FFF7ECFE082405E07449085DFFF7E6FEAD
:10264000601CC4B2102CF7DB01206649086000252D
:1026500001E0681CC5B20A2DFBDB0020614908605F
:102660000D20FFF7D3FE102405E06849085DFFF751
:10267000CDFE601CC4B2142CF7DB01205949086060
:10268000002501E0681CC5B20A2DFBDB012054497E
:1026900028390860002501E0681CC5B20A2DFBDB63
:1026A00000204F49283908600120FFF7FDF970BD6F
:1026B0002DE9FF4F85B08A469346059806F063F8EA
:1026C0004E4A4F4BCDE9000106F070F8CDE902010A
:1026D00006F02CF881464E48824500D98246504685
:1026E00006F051F8454A464BCDE9000106F05EF888
:1026F000CDE9020106F01AF807464548834500D99E
:102700008346584606F03FF83C4A3D4BCDE9000170
:1027100006F04CF8CDE9020106F008F8044625461B
:1027200008988608B6F5803F01D34FF6FF76B0468D
:10273000364981F807904FEA192088714FEA19400D
:1027400048714FEA19600871CF70380A8870380CE8
:102750004870380E0870CC73200A8873200C4873B8
:10276000200E0873CD72280A8872280C4872280E31
:102770000872CE74300A8874464681F811804FEA98
:1027800018200874FFF736FF0020174908700E2044
:1027900016494870FFF77CFE09B0BDE8F08F70B5B0
:1027A0000020104908600E20FFF730FE002505E0EC
:1027B0001849485DFFF72AFE681CC5B2082DF7DBF3
:1027C000012008490860002428E00000000C0140B6
:1027D0000008014000100140880121420000214210
:1027E000B4012242A881214233000020370000209A
:1027F0003B0000203F0000200000224295D626E842
:102800000B2E1140083D9B559F7B3C401C01002036
:102810000084D71747000020601CC4B20A2CFBDBE1
:10282000012059490860002401E0601CC4B20A2C50
:10283000FBDB0020544908600120FFF735F970BD2B
:1028400070B50646012E26D100205049086016209A
:10285000FFF7DCFD002504E04D49485DFFF7D6FD9C
:102860006D1CB5F5805FF7D301204849086000244E
:1028700000E0641C0A2CFCD30120434908600024BA
:1028800000E0641C0A2CFCD300203F4908600120B2
:10289000FFF70AF926E000203C4908601620FFF700
:1028A000B5FD002504E03B49485DFFF7AFFD6D1C19
:1028B000B5F5805FF7D3012034490860002400E0BB
:1028C000641C0A2CFCD301202F490860002400E07E
:1028D000641C0A2CFCD300202B4908600120FFF760
:1028E000E3F800BF70BD70B505462B48B0FBF5F0AE
:1028F000040AB4F5803F01D34FF6FF742420274922
:10290000C871002088714871C02008710F20C870FC
:102910008C70200A487000200870FFF740FF0120EB
:10292000FFF78EFFC0201E49087000201D49487027
:10293000FFF7AEFD70BD70B505461748B0FBF5F06A
:10294000040AB4F5803F01D34FF6FF7424201349E5
:10295000C871002088714871C02008710F20C870AC
:102960008C70200A487000200870FFF718FF0020C4
:10297000FFF766FFC0200A49087000200949487027
:10298000FFF786FD70BD00008C012242A881214224
:10299000C68D0008C69D000800CA9A3B470000206B
:1029A000330000203700002008B501214820FEF741
:1029B000ABFB2020ADF8000010208DF803000320B1
:1029C0008DF8020069460948FEF7E2F82021074821
:1029D000FEF78BF92020ADF8000069460448FEF7A9
:1029E000D7F820210248FEF780F908BD000C01400D
:1029F0000018014000B587B001214FF40170FEF7C7
:102A000083FB4FF40040FEF7E3FA0220ADF8040028
:102A100000208DF8070001A92E48FEF7B9F82E48CE
:102A2000FEF7DAFD002002908DF80C008DF80D0005
:102A30004FF4602004900020059001208DF81800CC
:102A400002A92548FEF7EFFD01212348FEF717FEF6
:102A50002148FEF736FE00BF1F48FEF737FE00286C
:102A6000FAD11D48FEF73CFE00BF1B48FEF73DFEB5
:102A70000028FAD107B000BD10B504460723012293
:102A800021461548FEF767FE01211348FEF737FE81
:102A900000BF02211048FEF7A3FF0028F9D00E481E
:102AA000FEF7C0FE10BD2DE9F04107460C4600259B
:102AB000002608E03846FFF7DFFF05440520FEF753
:102AC000F3FF701CC6B2A642F4DBB5FBF4F080B293
:102AD000BDE8F0810008014000240140F74908806A
:102AE0007047F649891C0880704708B5F348801C78
:102AF00000880090BDF8000008BDF04A1080921CCC
:102B00001180704710B504462046FFF7E7FF052007
:102B1000FEF7A6FFFFF7E9FF10BDE9480089E74986
:102B200008807047E549891C0880704730B5014628
:102B300001F01F04C1F34513CA0AE50205EB431572
:102B40001544A8B230BD00BF011EA0F10102D0B2F1
:102B5000FAD1704710B503460C46D948808849F22F
:102B60004131884205D0D648808845F210318842EC
:102B700014D1D3494889FFF7B1FF1812FFF7B1FF0D
:102B8000D8B2FFF7AEFFCE498889FFF7A7FF201222
:102B9000FFF7A7FFE0B2FFF7A4FFABE0C8488088CB
:102BA00046F6040188421DD1C5488079012804D128
:102BB000C3480088401EC01A83B2C1494889FFF744
:102BC0008DFF1812FFF78DFFD8B2FFF78AFFBC49BF
:102BD0008889FFF783FF2012FFF783FFE0B2FFF73A
:102BE00080FF87E0B648808841F66311884247D16C
:102BF000B3488079A8B9B2480088401EC01A83B291
:102C0000AF494889FFF76AFF0020FFF76AFF0020FD
:102C1000FFF767FF1812FFF764FFD8B2FFF761FFF5
:102C200016E0A7494889FFF759FF1812FFF759FF27
:102C3000D8B2FFF756FFA2490988491EC1F30F20F9
:102C4000FFF74FFF9E490978491EC8B2FFF749FFB9
:102C50009B498889FFF742FF2012FFF742FFE0B24D
:102C6000FFF73FFF96494988491EC1F30F20FFF740
:102C700038FF93498978491EC8B2FFF732FF39E01F
:102C80008F48808845F21051884220D18C4948896C
:102C9000FFF724FF1812FFF724FF89494989491CCF
:102CA00088B2FFF71BFFD8B2FFF71BFF8449888962
:102CB000FFF714FF2012FFF714FF81498989491C8F
:102CC00088B2FFF70BFFE0B2FFF70BFF12E07C4882
:102CD0008079012804D17A480088401EC01A83B246
:102CE000774948891946FFF708FF754988892146C1
:102CF000FFF703FF10BD2DE9F04105460E46002405
:102D00000027A0466E480088A84203DD6C48408832
:102D1000B04202DC0020BDE8F08131462846FFF7D2
:102D200019FF6748808849F24131884211D06448D0
:102D3000808846F6040188420BD06148808845F2BD
:102D40001031884205D05E48808841F66311884280
:102D500003D12E20FFF7C2FE0DE05948808845F2CE
:102D60001051884204D14FF43850FFF7B7FE02E00B
:102D70002220FFF7B3FE5248808849F22031884272
:102D800002D10220FFF7DFFEFFF7AFFE04464C48FA
:102D9000808841F66311884201D12046BBE70220BA
:102DA000FFF7D1FEFFF7A1FE04464548808849F2AF
:102DB000413188420BD04248808845F21031884228
:102DC00005D03F48808845F2105188420AD1022040
:102DD000FFF7B9FEFFF789FE8046E7B24FF6FF70B6
:102DE00000EA07273648808849F22531884216D004
:102DF0003348808844F23551884210D0304880886A
:102E0000091F88420BD02E4880884BF2055188421A
:102E100005D02B4880884CF20551884201D12046CC
:102E200079E72748808849F2413188420BD024480D
:102E3000808845F21031884205D02148808845F2CB
:102E40001051884207D1E012C002B91240EA411085
:102E500040EAE8205FE72046FFF768FE5BE700B541
:102E60001748808849F24131884211D0144880883F
:102E700046F6040188420BD01148808845F2103193
:102E8000884205D00E48808841F66311884203D1FC
:102E90002920FFF723FE0FE00948808845F21051F2
:102EA000884204D14FF42450FFF718FE04E040F2AA
:102EB00073110720FFF721FE00BD0000FE07006C24
:102EC0003001002000B5FD48808849F24131884238
:102ED00011D0FA48808846F6040188420BD0F748A2
:102EE000808845F21031884205D0F448808841F648
:102EF0006311884203D12820FFF7F0FD0EE0EF4870
:102F0000808845F21051884204D14FF42050FFF7D9
:102F1000E5FD03E000210720FFF7EFFD00BD70B5E0
:102F2000044600230026E548807901280BD1E348B8
:102F3000808846F60401884205D0E048808841F642
:102F40006311884208D1DD488079F0B9DB48808878
:102F500041F66311884218D1082C15D2DFE804F03D
:102F60000406080A0C0E101206240DE007240BE0DC
:102F7000042409E0052407E0012405E0002403E01F
:102F8000032401E0022400BF00BFCC48808849F23E
:102F90004131884217D0C948808846F604018842EA
:102FA00011D0C648808845F2103188420BD0C34802
:102FB000808845F21051884205D0C048808841F68B
:102FC000631188427ED1082C1CD2DFE804F004068D
:102FD000090C0F12151800BF14E043F0800311E034
:102FE00043F040030EE043F0C0030BE043F0200346
:102FF00008E043F0600305E043F0A00302E043F083
:10300000E00300BF00BFAD48808845F21051884200
:1030100002D14FF4585600E03626A848808845F281
:10302000103188420DD0A548808845F21051884261
:1030300007D0A248808841F66311884201D043F04E
:1030400008039E48808846F60401884201D143F077
:10305000020319463046FFF750FD9848808841F634
:10306000631188421DD003F0200068B193480088A6
:1030700092494988884214DA9048058840888F49E7
:103080000880084645800CE08C4800888B494988B8
:10309000884206DD894805884088884908800846B6
:1030A00045808648808845F21051884254D1834932
:1030B0004889FFF713FD0020FFF713FD7F49498979
:1030C000491C00E077E088B2FFF708FD0020FFF719
:1030D00008FD7A494989891C88B2FFF7FFFC7749C6
:1030E0000988491EC1F30F20FFF7FBFC734949898A
:1030F000C91C88B2FFF7F2FC70490978491EC8B2B2
:10310000FFF7EFFC6D498889FFF7E8FC0020FFF727
:10311000E8FC6A498989491C88B2FFF7DFFC002076
:10312000FFF7DFFC65498989891C88B2FFF7D6FC67
:1031300062494988491EC1F30F20FFF7D2FC5F495D
:103140008989C91C88B2FFF7C9FC5C498978491E86
:10315000C8B2FFF7C6FC55E058494889FFF7BEFCE6
:103160000020FFF7BEFC0020FFF7BBFC5349098895
:10317000491EC1F30F20FFF7B4FC50490978491EDE
:10318000C8B2FFF7AEFC4D498889FFF7A7FC0020C5
:10319000FFF7A7FC0020FFF7A4FC48494988491E17
:1031A000C1F30F20FFF79DFC44498978491EC8B23E
:1031B000FFF797FC26E0082C1CD2DFE804F0040798
:1031C0000A0D0F12151843F0300313E043F01003FB
:1031D00010E043F020030DE000BF0BE043F03803A4
:1031E00008E043F0280305E043F0180302E043F051
:1031F000080300BF00BF032643F48053194630463E
:10320000FFF77BFC70BD30B504460D4629462046CD
:10321000FFF7A0FCFFF781FC2948008829490880B6
:1032200030BD30B503460C4615462448808849F227
:103230004131884205D02148808845F210318842CA
:1032400014D11E494889FFF749FC1812FFF749FCC1
:10325000D8B2FFF746FC19498889FFF73FFC2012D6
:10326000FFF73FFCE0B2FFF73CFC93E01348808897
:1032700045F21051884227D110494889FFF72EFCAA
:103280001812FFF72EFC0D494989491C88B2FFF737
:1032900025FCD8B2FFF725FC08498889FFF71EFCFA
:1032A0002012FFF71EFC05498989491C88B2FFF7E7
:1032B00015FCE0B2FFF715FC6CE0000030010020C7
:1032C000500000200008006CFC48808841F6631123
:1032D000884228D1F948807920B9F8480088401EF2
:1032E000C01A83B2F5494889FFF7F8FB1812FFF7B7
:1032F000F8FBD8B2FFF7F5FB1812FFF7F2FBD8B2D4
:10330000FFF7EFFBED498889FFF7E8FB2012FFF795
:10331000E8FBE0B2FFF7E5FB2012FFF7E2FBE0B2CB
:10332000FFF7DFFB36E0E548808846F60401884277
:103330001DD1E2488079012804D1E0480088401E70
:10334000C01A83B2DD494889FFF7C8FB1812FFF79E
:10335000C8FBD8B2FFF7C5FBD8498889FFF7BEFB89
:103360002012FFF7BEFBE0B2FFF7BBFB12E0D34831
:103370008079012804D1D1480088401EC01A83B248
:10338000CE4948891946FFF7B8FBCC4988892146C0
:10339000FFF7B3FBC9480089C9490880881C05802C
:1033A00030BD2DE9F0470446BE20FFF797FB05200E
:1033B000FFF797FB204605F0E6F907464FF0663227
:1033C000C04B05F0F3F9054605F0B0F91FFA80F996
:1033D0004846FFF786FB0120FFF783FBFF20FFF73E
:1033E00080FB0020FFF77DFB0020FFF77AFBBDE8A4
:1033F000F08710B50446002C66D1B0498871F020E2
:1034000008804FF4A07048800846808849F2413116
:1034100088420BD0A948808846F60401884205D02E
:10342000A648808845F2103188421AD12C20A34941
:1034300008812A2048812B2088810846808846F60A
:103440000401884205D09D48808845F210318842A9
:1034500006D14FF4A070994908804FF4F07048806D
:10346000A1E09648808845F21051884210D14FF46F
:103470003050924908814FF4285048814FF42C5025
:1034800088814FF4F07008804FF4487048808AE0DB
:103490008A48808841F6631188420DD12C208749E3
:1034A00008812B2048812A2088814FF4F070088001
:1034B0004FF44870488076E022208049088120201F
:1034C0004881212088816EE001207C4988714FF479
:1034D000A0700880F02048800846808849F2413179
:1034E000884205D07548808845F21031884207D15E
:1034F0002C20724908812A2048812B2088813FE0B6
:103500006E48808846F60401884207D12C206B491A
:1035100008812B2048812A20888131E067488088F3
:1035200045F21051884210D14FF430506349088160
:103530004FF4285048814FF42C5088814FF4487044
:1035400008804FF4F07048801AE05C48808841F6AB
:10355000631188420DD12C20584908812A204881C6
:103560002B2088814FF4487008804FF4F070488019
:1035700006E02220514908812120488120208881AD
:103580004E48808846F60401884205D04B48808822
:1035900045F21031884206D14FF4F0704749088057
:1035A0004FF4A07048800020FFF7B9FC10BD2DE952
:1035B000F04F86B004460D469046994604EB08004D
:1035C000401E86B205EB0900401E87B23B4880884A
:1035D00049F24131884215D03848808845F210318F
:1035E00088420FD03548808846F60401884209D0C9
:1035F00032488079012826D13048808841F663110D
:10360000884220D12D494889FFF768FA2012FFF738
:1036100068FAE0B2FFF765FA3012FFF762FAF0B22B
:10362000FFF75FFA25498889FFF758FA2812FFF754
:1036300058FAE8B2FFF755FA3812FFF752FAF8B223
:10364000FFF74FFABEE01D48808841F663118842BB
:103650003AD11A480088A0EB0800001B84B205EBA1
:103660000900401E1FFA80F914494889FFF736FA0D
:103670002012FFF736FAE0B2FFF733FA04EB080145
:10368000491EC1F30F20FFF72CFA04EB0801491E75
:10369000C8B2FFF726FA09498889FFF71FFA2812EE
:1036A000FFF71FFAE8B2FFF71CFA4FEA2920FFF7ED
:1036B00018FA09F0FF00FFF714FA83E03001002048
:1036C000FE07006C66660440FE48808845F2105193
:1036D000884244D1FB494889FFF700FA2012FFF7DE
:1036E00000FAF8494989491C88B2FFF7F7F9E0B2B6
:1036F000FFF7F7F9F3494989891C88B2FFF7EEF91A
:103700003012FFF7EEF9EF494989C91C88B2FFF77B
:10371000E5F9F0B2FFF7E5F9EA498889FFF7DEF944
:103720002812FFF7DEF9E7498989491C88B2FFF7BB
:10373000D5F9E8B2FFF7D5F9E2498989891C88B241
:10374000FFF7CCF93812FFF7CCF9DE498989C91C9B
:1037500088B2FFF7C3F9F8B2FFF7C3F932E0D948EE
:10376000807901280ED1AA46BB46D6480088801B26
:10377000401E80B20190D3480088001B401E80B2DA
:10378000009003E0A246B3460195009750200590B3
:1037900051200490522003905320029051460598E6
:1037A000FFF7ABF959460498FFF7A7F90199039879
:1037B000FFF7A3F900990298FFF79FF929462046E1
:1037C000FFF7C8F906B0BDE8F08F70B504460026D3
:1037D000BC48058840884543BA48808846F60401BD
:1037E000884216D1B7488079012812D10020B54906
:1037F00088712A2048812B20888100210846FFF704
:10380000A9F90120AF4988712B2048812A2088819D
:1038100003E000210846FFF79DF9FFF77EF9002637
:1038200002E0A9480480761CAE42FAD370BD00B510
:103830009FB001210802FDF75AFC01214FF4B4703A
:10384000FDF762FC0120ADF8780010208DF87B00B8
:1038500003208DF87A001EA99C48FDF799F94CF2D7
:103860003370ADF8780018208DF87B0003208DF8B8
:103870007A001EA99648FDF78BF94FF68070ADF8D7
:10388000780018208DF87B0003208DF87A001EA99F
:103890009048FDF77DF941F20100ADF8780018205D
:1038A0008DF87B0003208DF87A001EA98A48FDF769
:1038B0006FF901200890002009900F200A90002045
:1038C0000B900C900D900E900190029003200390AD
:1038D0000020049005900690079006200F9000208D
:1038E00010901190102012900020139015901490B9
:1038F000169017904FF480501890002019904FF4B4
:1039000080401A9000201B9008A81C9001A81D90D0
:103910000FA8FCF723FE01210620FCF787FF3220C9
:10392000FEF7C2F80020FFF7EDF8664988800846E8
:103930008088FF280ADB084680884FF6FF7188429E
:1039400004D060488088B0F5134F7CD1D320FFF7B6
:10395000C5F8FFF7CAF85B498880FFF7C6F85949F0
:103960008880FFF7C2F857498880084680884FF65C
:10397000FF7101EA002053498880FFF7B6F85149EA
:10398000898808434F4988800846808849F2413138
:10399000884258D0BF20FFF7A1F8FFF7A6F84949A1
:1039A0008880FFF7A2F847498880FFF79EF84549CD
:1039B0008880FFF79AF843498880084680884FF648
:1039C000FF7101EA00203F498880FFF78EF83D49EA
:1039D000898808433B4988800846808846F6040168
:1039E000884230D0D420FFF779F8FFF77EF83549C8
:1039F0008880FFF77AF833498880FFF776F83149F5
:103A00008880084680884FF6FF7101EA00202D4922
:103A10008880FFF76AF82B498988084329498880FC
:103A20000846808845F21031884263D04FF45A40EE
:103A3000FFF754F8FFF759F8224988804FF45B40AC
:103A4000FFF74CF800E055E0FFF74FF81D4988807C
:103A5000084680884FF6FF7101EA002019498880E6
:103A60004FF45C40FFF73AF8FFF73FF815498988B3
:103A700008431449888008468088B0F5004F02D179
:103A800045F2105088800F48808845F210518842D6
:103A900030D0A120FFF722F8FFF727F809498880E6
:103AA000FFF723F807498880084680884FF6FF71A2
:103AB00001EA002003498880FFF717F80149898847
:103AC00008430BE0300100200008006C000C0140AE
:103AD000001401400018014000200140FE49888088
:103AE0000846808845F26171884203D141F663102F
:103AF000F9498880F8488188F8A003F01BFDF64852
:103B0000808849F2413188427ED1CF20FEF7E6FF1E
:103B10000020FEF7E6FFC120FEF7E3FF3020FEF7AE
:103B2000E0FFED20FEF7DAFF6420FEF7DAFF032066
:103B3000FEF7D7FF1220FEF7D4FF8120FEF7D1FF5A
:103B4000E820FEF7CBFF8520FEF7CBFF1020FEF725
:103B5000C8FF7A20FEF7C5FFCB20FEF7BFFF392054
:103B6000FEF7BFFF2C20FEF7BCFF0020FEF7B9FFD9
:103B70003420FEF7B6FF0220FEF7B3FFF720FEF772
:103B8000ADFF2020FEF7ADFFEA20FEF7A7FF0020E3
:103B9000FEF7A7FF0020FEF7A4FFC020FEF79EFF60
:103BA0001B20FEF79EFFC120FEF798FF0120FEF7C5
:103BB00098FFC520FEF792FF3020FEF792FF3020DD
:103BC000FEF78FFFC720FEF789FFB720FEF789FFBA
:103BD0003620FEF783FF4820FEF783FF3A20FEF7EA
:103BE0007DFF5520FEF77DFFB120FEF777FF002017
:103BF000FEF777FF1A20FEF774FFB620FEF76EFF80
:103C00000A20FEF76EFF00E097E0A220FEF769FFB2
:103C1000F220FEF763FF0020FEF763FF2620FEF789
:103C20005DFF0120FEF75DFFE020FEF757FF0F204C
:103C3000FEF757FF2A20FEF754FF2820FEF751FF1A
:103C40000820FEF74EFF0E20FEF74BFF0820FEF780
:103C500048FF5420FEF745FFA920FEF742FF43200E
:103C6000FEF73FFF0A20FEF73CFF0F20FEF739FF6B
:103C70000020FEF736FF0020FEF733FF0020FEF79E
:103C800030FF0020FEF72DFFE120FEF727FF002088
:103C9000FEF727FF1520FEF724FF1720FEF721FF70
:103CA0000720FEF71EFF1120FEF71BFF0620FEF780
:103CB00018FF2B20FEF715FF5620FEF712FF3C20C1
:103CC000FEF70FFF0520FEF70CFF1020FEF709FF9F
:103CD0000F20FEF706FF3F20FEF703FF3F20FEF711
:103CE00000FF0F20FEF7FDFE2B20FEF7F7FE002061
:103CF000FEF7F7FE0020FEF7F4FE0120FEF7F1FECE
:103D00003F20FEF7EEFE2A20FEF7E8FE0020FEF739
:103D1000E8FE0020FEF7E5FE0020FEF7E2FEEF20C1
:103D2000FEF7DFFE1120FEF7D9FE7820FDF7BCFE7E
:103D30002920FEF7D3FE03F022B96748808846F6B3
:103D4000040188427ED11120FEF7C8FE1420FDF741
:103D5000ABFED020FEF7C2FE0720FEF7C2FE4220D7
:103D6000FEF7BFFE1D20FEF7BCFED120FEF7B6FE1B
:103D70000020FEF7B6FE1A20FEF7B3FE0920FEF77C
:103D8000B0FED220FEF7AAFE0120FEF7AAFE2220F6
:103D9000FEF7A7FEC020FEF7A1FE1020FEF7A1FE51
:103DA0003B20FEF79EFE0020FEF79BFE0220FEF762
:103DB00098FE1120FEF795FEC520FEF78FFE03202A
:103DC000FEF78FFEC820FEF789FE0020FEF789FE71
:103DD0002520FEF786FE2120FEF783FE0520FEF754
:103DE00080FE0020FEF77DFE0A20FEF77AFE6520A9
:103DF000FEF777FE2520FEF774FE7720FEF771FEB2
:103E00005020FEF76EFE0F20FEF76BFE0020FEF73F
:103E100068FEF820FEF762FE0120FEF762FEFE203B
:103E2000FEF75CFE0020FEF75CFE0220FEF759FE66
:103E30002020FEF753FE3620FEF750FE0820FEF746
:103E400050FE00E02AE03A20FEF748FE5520FEF73B
:103E500048FE2B20FEF742FE0020FEF742FE002027
:103E6000FEF73FFE0120FEF73CFE3F20FEF739FE45
:103E70002A20FEF733FE0020FEF733FE0020FEF777
:103E800030FE0120FEF72DFEDF20FEF72AFE78200F
:103E9000FDF70AFE2920FEF721FE4CE70E48808838
:103EA00045F21031884240F08487ED20FEF716FE7F
:103EB0000120FEF716FEFE20FEF713FEEE20FEF7B1
:103EC0000DFEDE20FEF70DFE2120FEF70AFEF1209A
:103ED000FEF704FE012009E030010020204C43449D
:103EE0002049443A25780D0A00000000FEF7F9FD4C
:103EF000DF20FEF7F3FD1020FEF7F3FDC420FEF7F0
:103F0000EDFD8F20FEF7EDFDC620FEF7E7FD00205A
:103F1000FEF7E7FDE220FEF7E4FDE220FEF7E1FD1B
:103F2000E220FEF7DEFDBF20FEF7D8FDAA20FEF757
:103F3000D8FDB020FEF7D2FD0D20FEF7D2FD002007
:103F4000FEF7CFFD0D20FEF7CCFD0020FEF7C9FDEA
:103F50001120FEF7C6FD0020FEF7C3FD1920FEF775
:103F6000C0FD0020FEF7BDFD2120FEF7BAFD0020B8
:103F7000FEF7B7FD2D20FEF7B4FD0020FEF7B1FDE2
:103F80003D20FEF7AEFD0020FEF7ABFD5D20FEF705
:103F9000A8FD0020FEF7A5FD5D20FEF7A2FD002094
:103FA000FEF79FFDB120FEF799FD8020FEF799FDF9
:103FB0000020FEF796FD8B20FEF793FD0020FEF714
:103FC00090FD9620FEF78DFD0020FEF78AFDB220C1
:103FD000FEF784FD0020FEF784FD0020FEF781FD42
:103FE0000220FEF77EFD0020FEF77BFD0320FEF79A
:103FF00078FD0020FEF775FDB320FEF76FFD002071
:10400000FEF76FFD0020FEF76CFD0020FEF769FD56
:104010000020FEF766FD0020FEF763FD0020FEF79E
:1040200060FD0020FEF75DFD0020FEF75AFD002038
:10403000FEF757FD0020FEF754FD0020FEF751FD6E
:104040000020FEF74EFD0020FEF74BFD0020FEF79E
:1040500048FD0020FEF745FD0020FEF742FD002050
:10406000FEF73FFD0020FEF73CFD0020FEF739FD86
:104070000020FEF736FD0020FEF733FD0020FEF79E
:1040800030FD0020FEF72DFD0020FEF72AFDB420B4
:10409000FEF724FD8B20FEF724FD0020FEF721FD16
:1040A0009620FEF71EFD0020FEF71BFDA120FEF767
:1040B00018FD0020FEF715FDB520FEF70FFD0220CC
:1040C000FEF70FFD0020FEF70CFD0320FEF709FDB3
:1040D0000020FEF706FD0420FEF703FD0020FEF79A
:1040E00000FDB620FEF7FAFC0020FEF7FAFC0020E7
:1040F000FEF7F7FCB720FEF7F1FC0020FEF7F1FC1D
:104100000020FEF7EEFC3F20FEF7EBFC0020FEF760
:10411000E8FC5E20FEF7E5FC0020FEF7E2FC6420F0
:10412000FEF7DFFC0020FEF7DCFC8C20FEF7D9FC5C
:104130000020FEF7D6FCAC20FEF7D3FC0020FEF7F3
:10414000D0FCDC20FEF7CDFC0020FEF7CAFC70207E
:10415000FEF7C7FC0020FEF7C4FC9020FEF7C1FC70
:104160000020FEF7BEFCEB20FEF7BBFC0020FEF7B4
:10417000B8FCDC20FEF7B5FC0020FEF7B2FCB8204E
:10418000FEF7ACFC0020FEF7ACFC0020FEF7A9FC1B
:104190000020FEF7A6FC0020FEF7A3FC0020FEF79F
:1041A000A0FC0020FEF79DFC0020FEF79AFC0020FA
:1041B000FEF797FCBA20FEF791FC2420FEF791FC55
:1041C0000020FEF78EFC0020FEF78BFC0020FEF79F
:1041D00088FCC120FEF782FC2020FEF782FC002034
:1041E000FEF77FFC5420FEF77CFC0020FEF779FCF4
:1041F000FF20FEF776FC0020FEF773FCC220FEF7DE
:104200006DFC0A20FEF76DFC0020FEF76AFC04201E
:10421000FEF767FC0020FEF764FCC320FEF75EFC9F
:104220003C20FEF75EFC0020FEF75BFC3A20FEF728
:1042300058FC0020FEF755FC3920FEF752FC002008
:10424000FEF74FFC3720FEF74CFC0020FEF749FC40
:104250003C20FEF746FC0020FEF743FC3620FEF72C
:1042600040FC0020FEF73DFC3220FEF73AFC002027
:10427000FEF737FC2F20FEF734FC0020FEF731FC60
:104280002C20FEF72EFC0020FEF72BFC2920FEF749
:1042900028FC0020FEF725FC2620FEF722FC00204B
:1042A000FEF71FFC2420FEF71CFC0020FEF719FC83
:1042B0002420FEF716FC0020FEF713FC2320FEF757
:1042C00010FC0020FEF70DFC3C20FEF70AFC00204D
:1042D000FEF707FC3620FEF704FC0020FEF701FC89
:1042E0003220FEF7FEFB0020FEF7FBFB2F20FEF73F
:1042F000F8FB0020FEF7F5FB2C20FEF7F2FB002078
:10430000FEF7EFFB2920FEF7ECFB0020FEF7E9FBB0
:104310002620FEF7E6FB0020FEF7E3FB2420FEF755
:10432000E0FB0020FEF7DDFB2420FEF7DAFB002097
:10433000FEF7D7FB2320FEF7D4FB0020FEF7D1FBCE
:10434000C420FEF7CBFB6220FEF7CBFB0020FEF77C
:10435000C8FB0520FEF7C5FB0020FEF7C2FB84204A
:10436000FEF7BFFB0020FEF7BCFBF020FEF7B9FB19
:104370000020FEF7B6FB1820FEF7B3FB0020FEF787
:10438000B0FBA420FEF7ADFB0020FEF7AAFB18202F
:10439000FEF7A7FB0020FEF7A4FB5020FEF7A1FBD1
:1043A0000020FEF79EFB0C20FEF79BFB0020FEF793
:1043B00098FB1720FEF795FB0020FEF792FB952057
:1043C000FEF78FFB0020FEF78CFBF320FEF789FB46
:1043D0000020FEF786FBE620FEF783FB0020FEF7B9
:1043E00080FBC520FEF77AFB3220FEF77AFB002027
:1043F000FEF777FB4420FEF774FB0020FEF771FB0D
:104400006520FEF76EFB0020FEF76BFB7620FEF7C3
:1044100068FB0020FEF765FB8820FEF762FB0020AA
:10442000FEF75FFBC620FEF759FB2020FEF759FB85
:104430000020FEF756FB1720FEF753FB0020FEF787
:1044400050FB0120FEF74DFB0020FEF74AFBC72082
:10445000FEF744FB0020FEF744FB0020FEF741FB83
:104460000020FEF73EFB0020FEF73BFBC820FEF7D6
:1044700035FB0020FEF735FB0020FEF732FB002065
:10448000FEF72FFB0020FEF72CFBC920FEF726FBD2
:104490000020FEF726FB0020FEF723FB0020FEF79E
:1044A00020FB0020FEF71DFB0020FEF71AFB00207A
:1044B000FEF717FB0020FEF714FB0020FEF711FBB0
:1044C0000020FEF70EFB0020FEF70BFB0020FEF79E
:1044D00008FB0020FEF705FB0020FEF702FB002092
:1044E000FEF7FFFA0020FEF7FCFA0020FEF7F9FACB
:1044F000E020FEF7F3FA1620FEF7F3FA0020FEF7AD
:10450000F0FA1C20FEF7EDFA0020FEF7EAFA21206F
:10451000FEF7E7FA0020FEF7E4FA3620FEF7E1FAAC
:104520000020FEF7DEFA4620FEF7DBFA0020FEF759
:10453000D8FA5220FEF7D5FA0020FEF7D2FA64200E
:10454000FEF7CFFA0020FEF7CCFA7A20FEF7C9FA80
:104550000020FEF7C6FA8B20FEF7C3FA0020FEF714
:10456000C0FA9920FEF7BDFA0020FEF7BAFAA8209B
:10457000FEF7B7FA0020FEF7B4FAB920FEF7B1FA59
:104580000020FEF7AEFAC420FEF7ABFA0020FEF7DB
:10459000A8FACA20FEF7A5FA0020FEF7A2FAD22058
:1045A000FEF79FFA0020FEF79CFAD920FEF799FA51
:1045B0000020FEF796FAE020FEF793FA0020FEF7BF
:1045C00090FAF320FEF78DFA0020FEF78AFAE12038
:1045D000FEF784FA1620FEF784FA0020FEF781FA2F
:1045E0001C20FEF77EFA0020FEF77BFA2220FEF761
:1045F00078FA0020FEF775FA3620FEF772FA0020EE
:10460000FEF76FFA4520FEF76CFA0020FEF769FA14
:104610005220FEF766FA0020FEF763FA6420FEF7E8
:1046200060FA0020FEF75DFA7A20FEF75AFA0020C1
:10463000FEF757FA8B20FEF754FA0020FEF751FAE6
:104640009920FEF74EFA0020FEF74BFAA820FEF75D
:1046500048FA0020FEF745FAB920FEF742FA00209A
:10466000FEF73FFAC420FEF73CFA0020FEF739FAC5
:10467000CA20FEF736FA0020FEF733FAD220FEF702
:1046800030FA0020FEF72DFAD820FEF72AFA002093
:10469000FEF727FAE020FEF724FA0020FEF721FAC1
:1046A000F320FEF71EFA0020FEF71BFAE220FEF7C9
:1046B00015FA0520FEF715FA0020FEF712FA0B2076
:1046C000FEF70FFA0020FEF70CFA1B20FEF709FA9E
:1046D0000020FEF706FA3420FEF703FA0020FEF76A
:1046E00000FA4420FEF7FDF90020FEF7FAF94F200A
:1046F000FEF7F7F90020FEF7F4F96120FEF7F1F973
:104700000020FEF7EEF97920FEF7EBF90020FEF726
:10471000E8F98820FEF7E5F90020FEF7E2F9972096
:10472000FEF7DFF90020FEF7DCF9A620FEF7D9F945
:104730000020FEF7D6F9B720FEF7D3F90020FEF7E8
:10474000D0F9C220FEF7CDF90020FEF7CAF9C72044
:10475000FEF7C7F90020FEF7C4F9D120FEF7C1F932
:104760000020FEF7BEF9D620FEF7BBF90020FEF7C9
:10477000B8F9DD20FEF7B5F90020FEF7B2F9F32015
:10478000FEF7AFF90020FEF7ACF9E320FEF7A6F93B
:104790000520FEF7A6F90020FEF7A3F90A20FEF790
:1047A000A0F90020FEF79DF91C20FEF79AF90020E1
:1047B000FEF797F93320FEF794F90020FEF791F900
:1047C0004420FEF78EF90020FEF78BF95020FEF70B
:1047D00088F90020FEF785F96220FEF782F90020B3
:1047E000FEF77FF97820FEF77CF90020FEF779F9D3
:1047F0008820FEF776F90020FEF773F99720FEF780
:1048000070F90020FEF76DF9A620FEF76AF9002086
:10481000FEF767F9B720FEF764F90020FEF761F9AB
:10482000C220FEF75EF90020FEF75BF9C720FEF715
:1048300058F90020FEF755F9D120FEF752F9002073
:10484000FEF74FF9D520FEF74CF90020FEF749F9A5
:10485000DD20FEF746F90020FEF743F9F320FEF7CE
:1048600040F90020FEF73DF9E420FEF737F901207A
:10487000FEF737F90020FEF734F90120FEF731F991
:104880000020FEF72EF90220FEF72BF90020FEF79C
:1048900028F92A20FEF725F90020FEF722F93C200E
:1048A000FEF71FF90020FEF71CF94B20FEF719F95F
:1048B0000020FEF716F95D20FEF713F90020FEF741
:1048C00010F97420FEF70DF90020FEF70AF9842094
:1048D000FEF707F90020FEF704F99320FEF701F92F
:1048E0000020FEF7FEF8A220FEF7FBF80020FEF7FE
:1048F000F8F8B320FEF7F5F80020FEF7F2F8BE2036
:10490000FEF7EFF80020FEF7ECF8C420FEF7E9F818
:104910000020FEF7E6F8CD20FEF7E3F80020FEF7D2
:10492000E0F8D320FEF7DDF80020FEF7DAF8DD200E
:10493000FEF7D7F80020FEF7D4F8F320FEF7D1F801
:104940000020FEF7CEF8E520FEF7C8F80020FEF7BD
:10495000C8F80020FEF7C5F80020FEF7C2F80020D6
:10496000FEF7BFF80220FEF7BCF80020FEF7B9F80A
:104970002920FEF7B6F80020FEF7B3F83C20FEF73A
:10498000B0F80020FEF7ADF84B20FEF7AAF80020A3
:10499000FEF7A7F85D20FEF7A4F80020FEF7A1F8C7
:1049A0007420FEF79EF80020FEF79BF88420FEF7A7
:1049B00098F80020FEF795F89320FEF792F8002073
:1049C000FEF78FF8A220FEF78CF80020FEF789F89A
:1049D000B320FEF786F80020FEF783F8BE20FEF72E
:1049E00080F80020FEF77DF8C420FEF77AF800205A
:1049F000FEF777F8CD20FEF774F80020FEF771F887
:104A0000D320FEF76EF80020FEF76BF8DC20FEF7EF
:104A100068F80020FEF765F8F320FEF762F8002042
:104A2000FEF75FF8E620FEF759F81120FEF759F877
:104A30000020FEF756F83420FEF753F80020FEF76A
:104A400050F85620FEF74DF80020FEF74AF8762081
:104A5000FEF747F80020FEF744F87720FEF741F80C
:104A60000020FEF73EF86620FEF73BF80020FEF738
:104A700038F88820FEF735F80020FEF732F8992044
:104A8000FEF72FF80020FEF72CF8BB20FEF729F8E0
:104A90000020FEF726F89920FEF723F80020FEF705
:104AA00020F86620FEF71DF80020FEF71AF85520C2
:104AB000FEF717F80020FEF714F85520FEF711F85E
:104AC0000020FEF70EF84520FEF70BF80020FEF759
:104AD00008F84320FEF705F80020FEF702F844200E
:104AE000FDF7FFFF0020FDF7FCFFE720FDF7F6FFD5
:104AF0003220FDF7F6FF0020FDF7F3FF5520FDF70C
:104B0000F0FF0020FDF7EDFF7620FDF7EAFF002023
:104B1000FDF7E7FF6620FDF7E4FF0020FDF7E1FF6A
:104B20006720FDF7DEFF0020FDF7DBFF6720FDF7C4
:104B3000D8FF0020FDF7D5FF8720FDF7D2FF00202A
:104B4000FDF7CFFF9920FDF7CCFF0020FDF7C9FF4F
:104B5000BB20FDF7C6FF0020FDF7C3FF9920FDF73E
:104B6000C0FF0020FDF7BDFF7720FDF7BAFF002052
:104B7000FDF7B7FF4420FDF7B4FF0020FDF7B1FFBC
:104B80005620FDF7AEFF0020FDF7ABFF2320FDF719
:104B9000A8FF0020FDF7A5FF3320FDF7A2FF0020AE
:104BA000FDF79FFF4520FDF79CFF0020FDF799FFD3
:104BB000E820FDF793FF0020FDF793FF0020FDF7AD
:104BC00090FF9920FDF78DFF0020FDF78AFF8720D9
:104BD000FDF787FF0020FDF784FF8820FDF781FFA8
:104BE0000020FDF77EFF7720FDF77BFF0020FDF71B
:104BF00078FF6620FDF775FF0020FDF772FF882023
:104C0000FDF76FFF0020FDF76CFFAA20FDF769FF9D
:104C10000020FDF766FFBB20FDF763FF0020FDF7D6
:104C200060FF9920FDF75DFF0020FDF75AFF662029
:104C3000FDF757FF0020FDF754FF5520FDF751FF0A
:104C40000020FDF74EFF5520FDF74BFF0020FDF73C
:104C500048FF4420FDF745FF0020FDF742FF4420B8
:104C6000FDF73FFF0020FDF73CFF5520FDF739FF22
:104C70000020FDF736FFE920FDF730FFAA20FDF701
:104C800030FF0020FDF72DFF0020FDF72AFF002058
:104C9000FDF727FF0020FDF721FFAA20FDF721FFE8
:104CA000CF20FDF71BFF0020FDF71BFF0020FDF7C5
:104CB00018FF0020FDF715FF0020FDF712FF002070
:104CC000FDF70FFF0020FDF70CFF0020FDF709FFA7
:104CD0000020FDF706FF0020FDF703FF0020FDF791
:104CE00000FF0020FDF7FDFE0020FDF7FAFE00208A
:104CF000FDF7F7FE0020FDF7F4FE0020FDF7F1FEC2
:104D00000020FDF7EEFE0020FDF7EBFEF020FDF7A2
:104D1000E5FE0020FDF7E5FE5020FDF7E2FE002055
:104D2000FDF7DFFE0020FDF7DCFE0020FDF7D9FED9
:104D3000F320FDF7D3FE0020FDF7D3FEF920FDF7A9
:104D4000CDFE0620FDF7CDFE1020FDF7CAFE29207E
:104D5000FDF7C7FE0020FDF7C4FE3A20FDF7BEFEBA
:104D60005520FDF7BEFE1120FDF7B8FE6420FCF7CC
:104D70009BFE2920FDF7B2FE3520FDF7AFFE002097
:104D8000FDF7AFFE5120FDF7A9FEFF20FDF7A9FEBC
:104D90005320FDF7A3FE2C20FDF7A3FE5520FDF7C1
:104DA0009DFE8220FDF79DFE2C20FDF797FE02F070
:104DB000E6B8FE48808845F2105188427ED15521E0
:104DC0004FF47040FDF799FEAA214FF20100FDF764
:104DD00094FE52214FF20200FDF78FFE08214FF2A0
:104DE0000300FDF78AFE01214FF20400FDF785FE66
:104DF0000D214FF43040FDF780FE0D214BF20100F4
:104E0000FDF77BFE0D214BF20200FDF776FE34210B
:104E10004FF43640FDF771FE34214BF20160FDF78F
:104E20006CFE34214BF20260FDF767FE0D214FF45A
:104E30003140FDF762FE0D214BF20110FDF75DFEE2
:104E40000D214BF20210FDF758FE34214FF437408C
:104E5000FDF753FE34214BF20170FDF74EFE342175
:104E60004BF20270FDF749FE00214FF43240FDF78E
:104E700044FE00214BF20120FDF73FFE00214BF2E2
:104E80000220FDF73AFE24214FF43840FDF735FEAD
:104E900024214BF60100FDF730FE24214BF60200E1
:104EA000FDF72BFE01214FF43F40FDF726FE0F21B9
:104EB0004FF43340FDF721FE0F2100E0FEE34BF2FB
:104EC0000130FDF71AFE0F214BF20230FDF715FEFF
:104ED00034214FF43940FDF710FE34214BF6011018
:104EE000FDF70BFE34214BF60210FDF706FE0821FC
:104EF0004FF43540FDF701FE08214BF20150FDF75C
:104F0000FCFD08214BF20250FDF7F7FD03214FF4A1
:104F10004240FDF7F2FD24214FF43A40FDF7EDFD4C
:104F200024214BF60120FDF7E8FD24214BF6022059
:104F3000FDF7E3FD00214FF43C40FDF7DEFD782155
:104F40004BF60140FDF7D9FD00214BF60240FDF77D
:104F5000D4FD00214FF43D40FDF7CFFD78214BF605
:104F60000150FDF7CAFD00214BF60250FDF7C5FDCB
:104F700000214FF43E40FDF7C0FD64214BF6016077
:104F8000FDF7BBFD00214FF45140FDF7B6FD332185
:104F90004DF20110FDF7B1FD00214DF20210FDF7B9
:104FA000ACFD34214DF20310FDF7A7FD00214DF2B9
:104FB0000410FDF7A2FD3A214DF20510FDF79DFD0D
:104FC00000214DF20610FDF798FD4A214DF2071021
:104FD000FDF793FD00214DF20810FDF78EFD5C21D9
:104FE0004DF20910FDF789FD00214DF20A10FDF781
:104FF00084FD81214DF20B10FDF77FFD00214DF264
:105000000C10FDF77AFDA6214DF20D10FDF775FD90
:1050100000214DF20E10FDF770FDE5214DF20F104D
:10502000FDF76BFD01214DF21010FDF766FD132118
:105030004DF21110FDF761FD01214DF21210FDF747
:105040005CFD54214DF21310FDF757FD01214DF287
:105050001410FDF752FD82214DF21510FDF74DFDA4
:1050600001214DF21610FDF748FDCA214DF217102F
:10507000FDF743FD02214DF21810FDF73EFD002122
:105080004DF21910FDF739FD02214DF21A10FDF70E
:1050900034FD01214DF21B10FDF72FFD02214DF2D1
:1050A0001C10FDF72AFD34214DF21D10FDF725FDE2
:1050B00002214DF21E10FDF720FD67214DF21F1059
:1050C000FDF71BFD02214DF22010FDF716FD842196
:1050D0004DF22110FDF711FD02214DF22210FDF7D6
:1050E0000CFDA4214DF22310FDF707FD02214DF226
:1050F0002410FDF702FDB7214DF22510FDF7FDFC50
:1051000002214DF22610FDF7F8FCCF214DF22710B9
:10511000FDF7F3FC02214DF22810FDF7EEFCDE2135
:105120004DF22910FDF7E9FC02214DF22A10FDF79E
:10513000E4FCF2214DF22B10FDF7DFFC02214DF2D1
:105140002C10FDF7DAFCFE214DF22D10FDF7D5FCF9
:1051500003214DF22E10FDF7D0FC10214DF22F103F
:10516000FDF7CBFC03214DF23010FDF7C6FC3321D7
:105170004DF23110FDF7C1FC03214DF23210FDF765
:10518000BCFC6D214DF23310FDF7B7FC00214FF44C
:105190005240FDF7B2FC33214DF20120FDF7ADFC8A
:1051A00000214DF20220FDF7A8FC01E030010020B3
:1051B00034214DF20320FDF7A0FC00214DF2042024
:1051C000FDF79BFC3A214DF20520FDF796FC0021EE
:1051D0004DF20620FDF791FC4A214DF20720FDF724
:1051E0008CFC00214DF20820FDF787FC5C214DF27C
:1051F0000920FDF782FC00214DF20A20FDF77DFC1D
:1052000081214DF20B20FDF778FC00214DF20C209E
:10521000FDF773FCA6214DF20D20FDF76EFC002179
:105220004DF20E20FDF769FCE5214DF20F20FDF750
:1052300064FC01214DF21020FDF75FFC13214DF2BB
:105240001120FDF75AFC01214DF21220FDF755FC0B
:1052500054214DF21320FDF750FC01214DF2142092
:10526000FDF74BFC82214DF21520FDF746FC012194
:105270004DF21620FDF741FCCA214DF21720FDF733
:105280003CFC02214DF21820FDF737FC00214DF2C5
:105290001920FDF732FC02214DF21A20FDF72DFCFA
:1052A00001214DF21B20FDF728FC02214DF21C20AC
:1052B000FDF723FC34214DF21D20FDF71EFC0221D9
:1052C0004DF21E20FDF719FC67214DF21F20FDF75E
:1052D00014FC02214DF22020FDF70FFC84214DF239
:1052E0002120FDF70AFC02214DF22220FDF705FCEA
:1052F000A4214DF22320FDF700FC02214DF22420D1
:10530000FDF7FBFBB7214DF22520FDF7F6FB02214F
:105310004DF22620FDF7F1FBCF214DF22720FDF7BE
:10532000ECFB02214DF22820FDF7E7FBDE214DF2D8
:105330002920FDF7E2FB02214DF22A20FDF7DDFBDB
:10534000F2214DF22B20FDF7D8FB02214DF22C204B
:10535000FDF7D3FBFE214DF22D20FDF7CEFB0321FF
:105360004DF22E20FDF7C9FB10214DF22F20FDF745
:10537000C4FB03214DF23020FDF7BFFB33214DF27A
:105380003120FDF7BAFB03214DF23220FDF7B5FBCA
:105390006D214DF23320FDF7B0FB00214FF4534057
:1053A000FDF7ABFB33214DF20130FDF7A6FB0021E9
:1053B0004DF20230FDF7A1FB34214DF20330FDF731
:1053C0009CFB00214DF20430FDF797FB3A214DF292
:1053D0000530FDF792FB00214DF20630FDF78DFB05
:1053E0004A214DF20730FDF788FB00214DF20830CD
:1053F000FDF783FB5C214DF20930FDF77EFB0021B8
:105400004DF20A30FDF779FB81214DF20B30FDF7AB
:1054100074FB00214DF20C30FDF76FFBA6214DF21D
:105420000D30FDF76AFB00214DF20E30FDF765FBF4
:10543000E5214DF20F30FDF760FB01214DF21030F8
:10544000FDF75BFB13214DF21130FDF756FB0121F7
:105450004DF21230FDF751FB54214DF21330FDF7A0
:105460004CFB01214DF21430FDF747FB82214DF238
:105470001530FDF742FB01214DF21630FDF73DFBE3
:10548000CA214DF21730FDF738FB02214DF21830DA
:10549000FDF733FB00214DF21930FDF72EFB022101
:1054A0004DF21A30FDF729FB01214DF21B30FDF7BB
:1054B00024FB02214DF21C30FDF71FFB34214DF27D
:1054C0001D30FDF71AFB02214DF21E30FDF715FBD2
:1054D00067214DF21F30FDF710FB02214DF2203005
:1054E000FDF70BFB84214DF22130FDF706FB022175
:1054F0004DF22230FDF701FBA4214DF22330FDF7E0
:10550000FCFA02214DF22430FDF7F7FAB7214DF2F3
:105510002530FDF7F2FA02214DF22630FDF7EDFAC3
:10552000CF214DF22730FDF7E8FA02214DF2283065
:10553000FDF7E3FADE214DF22930FDF7DEFA022114
:105540004DF22A30FDF7D9FAF2214DF22B30FDF75A
:10555000D4FA02214DF22C30FDF7CFFAFE214DF2A4
:105560002D30FDF7CAFA03214DF22E30FDF7C5FAB2
:1055700010214DF22F30FDF7C0FA03214DF23030EB
:10558000FDF7BBFA33214DF23130FDF7B6FA0321B6
:105590004DF23230FDF7B1FA6D214DF23330FDF7A7
:1055A000ACFA00214FF45440FDF7A7FA33214DF235
:1055B0000140FDF7A2FA00214DF20240FDF79DFAED
:1055C00034214DF20340FDF798FA00214DF20440DA
:1055D000FDF793FA3A214DF20540FDF78EFA0021CE
:1055E0004DF20640FDF789FA4A214DF20740FDF7DA
:1055F00084FA00214DF20840FDF77FFA5C214DF25C
:105600000940FDF77AFA00214DF20A40FDF775FADC
:1056100081214DF20B40FDF770FA00214DF20C4054
:10562000FDF76BFAA6214DF20D40FDF766FA002159
:105630004DF20E40FDF761FAE5214DF20F40FDF706
:105640005CFA01214DF21040FDF757FA13214DF29B
:105650001140FDF752FA01214DF21240FDF74DFACB
:1056600054214DF21340FDF748FA01214DF2144048
:10567000FDF743FA82214DF21540FDF73EFA012174
:105680004DF21640FDF739FACA214DF21740FDF7E9
:1056900034FA02214DF21840FDF72FFA00214DF2A5
:1056A0001940FDF72AFA02214DF21A40FDF725FABA
:1056B00001214DF21B40FDF720FA00E004E3022136
:1056C0004DF21C40FDF719FA34214DF21D40FDF753
:1056D00014FA02214DF21E40FDF70FFA67214DF238
:1056E0001F40FDF70AFA02214DF22040FDF705FAAE
:1056F00084214DF22140FDF700FA02214DF22240B3
:10570000FDF7FBF9A4214DF22340FDF7F6F9022144
:105710004DF22440FDF7F1F9B7214DF22540FDF798
:10572000ECF902214DF22640FDF7E7F9CF214DF2C9
:105730002740FDF7E2F902214DF22840FDF7DDF99F
:10574000DE214DF22940FDF7D8F902214DF22A4021
:10575000FDF7D3F9F2214DF22B40FDF7CEF90221EE
:105760004DF22C40FDF7C9F9FE214DF22D40FDF719
:10577000C4F903214DF22E40FDF7BFF910214DF27F
:105780002F40FDF7BAF903214DF23040FDF7B5F98E
:1057900033214DF23140FDF7B0F903214DF2324093
:1057A000FDF7ABF96D214DF23340FDF7A6F900216D
:1057B0004FF45540FDF7A1F933214DF20150FDF7AB
:1057C0009CF900214DF20250FDF797F934214DF27A
:1057D0000350FDF792F900214DF20450FDF78DF9C9
:1057E0003A214DF20550FDF788F900214DF206509F
:1057F000FDF783F94A214DF20750FDF77EF90021AC
:105800004DF20850FDF779F95C214DF20950FDF792
:1058100074F900214DF20A50FDF76FF981214DF224
:105820000B50FDF76AF900214DF20C50FDF765F9B8
:10583000A6214DF20D50FDF760F900214DF20E50FA
:10584000FDF75BF9E5214DF20F50FDF756F9012107
:105850004DF21050FDF751F913214DF21150FDF7A3
:105860004CF901214DF21250FDF747F954214DF248
:105870001350FDF742F901214DF21450FDF73DF9A7
:1058800082214DF21550FDF738F901214DF21650E5
:10589000FDF733F9CA214DF21750FDF72EF9022119
:1058A0004DF21850FDF729F900214DF21950FDF77E
:1058B00024F902214DF21A50FDF71FF901214DF292
:1058C0001B50FDF71AF902214DF21C50FDF715F996
:1058D00034214DF21D50FDF710F902214DF21E50FA
:1058E000FDF70BF967214DF21F50FDF706F9022174
:1058F0004DF22050FDF701F984214DF22150FDF7C2
:10590000FCF802214DF22250FDF7F7F8A4214DF2E8
:105910002350FDF7F2F802214DF22450FDF7EDF887
:10592000B7214DF22550FDF7E8F802214DF226503F
:10593000FDF7E3F8CF214DF22750FDF7DEF8022105
:105940004DF22850FDF7D9F8DE214DF22950FDF730
:10595000D4F802214DF22A50FDF7CFF8F2214DF292
:105960002B50FDF7CAF802214DF22C50FDF7C5F877
:10597000FE214DF22D50FDF7C0F803214DF22E50BF
:10598000FDF7BBF810214DF22F50FDF7B6F80321BB
:105990004DF23050FDF7B1F833214DF23150FDF7A3
:1059A000ACF803214DF23250FDF7A7F86D214DF20E
:1059B0003350FDF7A2F800214FF45640FDF79DF853
:1059C00033214DF20160FDF798F800214DF202609D
:1059D000FDF793F834214DF20360FDF78EF80021B6
:1059E0004DF20460FDF789F83A214DF20560FDF7AC
:1059F00084F800214DF20660FDF77FF84A214DF250
:105A00000760FDF77AF800214DF20860FDF775F8A0
:105A10005C214DF20960FDF770F800214DF20A603B
:105A2000FDF76BF881214DF20B60FDF766F8002160
:105A30004DF20C60FDF761F8A6214DF20D60FDF707
:105A40005CF800214DF20E60FDF757F8E5214DF2AC
:105A50000F60FDF752F801214DF21060FDF74DF88F
:105A600013214DF21160FDF748F801214DF212604B
:105A7000FDF743F854214DF21360FDF73EF8012184
:105A80004DF21460FDF739F882214DF21560FDF7F3
:105A900034F801214DF21660FDF72FF8CA214DF2BE
:105AA0001760FDF72AF802214DF21860FDF725F87E
:105AB00000214DF21960FDF720F802214DF21A6025
:105AC000FDF71BF801214DF21B60FDF716F80221CE
:105AD0004DF21C60FDF711F834214DF21D60FDF709
